{
  "address": "0x6A1E346BE216AaC5493983B355E2259D4cb852A7",
  "abi": [
    {
      "inputs": [],
      "stateMutability": "nonpayable",
      "type": "constructor"
    },
    {
      "inputs": [],
      "name": "AccessControlBadConfirmation",
      "type": "error"
    },
    {
      "inputs": [
        {
          "internalType": "address",
          "name": "account",
          "type": "address"
        },
        {
          "internalType": "bytes32",
          "name": "neededRole",
          "type": "bytes32"
        }
      ],
      "name": "AccessControlUnauthorizedAccount",
      "type": "error"
    },
    {
      "inputs": [
        {
          "internalType": "address",
          "name": "_address",
          "type": "address"
        }
      ],
      "name": "Blacklisted",
      "type": "error"
    },
    {
      "inputs": [
        {
          "internalType": "address",
          "name": "spender",
          "type": "address"
        },
        {
          "internalType": "uint256",
          "name": "allowance",
          "type": "uint256"
        },
        {
          "internalType": "uint256",
          "name": "needed",
          "type": "uint256"
        }
      ],
      "name": "ERC20InsufficientAllowance",
      "type": "error"
    },
    {
      "inputs": [
        {
          "internalType": "address",
          "name": "sender",
          "type": "address"
        },
        {
          "internalType": "uint256",
          "name": "balance",
          "type": "uint256"
        },
        {
          "internalType": "uint256",
          "name": "needed",
          "type": "uint256"
        }
      ],
      "name": "ERC20InsufficientBalance",
      "type": "error"
    },
    {
      "inputs": [
        {
          "internalType": "address",
          "name": "approver",
          "type": "address"
        }
      ],
      "name": "ERC20InvalidApprover",
      "type": "error"
    },
    {
      "inputs": [
        {
          "internalType": "address",
          "name": "receiver",
          "type": "address"
        }
      ],
      "name": "ERC20InvalidReceiver",
      "type": "error"
    },
    {
      "inputs": [
        {
          "internalType": "address",
          "name": "sender",
          "type": "address"
        }
      ],
      "name": "ERC20InvalidSender",
      "type": "error"
    },
    {
      "inputs": [
        {
          "internalType": "address",
          "name": "spender",
          "type": "address"
        }
      ],
      "name": "ERC20InvalidSpender",
      "type": "error"
    },
    {
      "inputs": [],
      "name": "EnforcedPause",
      "type": "error"
    },
    {
      "inputs": [],
      "name": "ExpectedPause",
      "type": "error"
    },
    {
      "inputs": [],
      "name": "InvalidInitialization",
      "type": "error"
    },
    {
      "inputs": [
        {
          "internalType": "address",
          "name": "_address",
          "type": "address"
        }
      ],
      "name": "NotBlacklisted",
      "type": "error"
    },
    {
      "inputs": [],
      "name": "NotInitializing",
      "type": "error"
    },
    {
      "inputs": [],
      "name": "ZeroAddress",
      "type": "error"
    },
    {
      "anonymous": false,
      "inputs": [
        {
          "indexed": true,
          "internalType": "address",
          "name": "_address",
          "type": "address"
        }
      ],
      "name": "AddedToBlacklist",
      "type": "event"
    },
    {
      "anonymous": false,
      "inputs": [
        {
          "indexed": true,
          "internalType": "address",
          "name": "owner",
          "type": "address"
        },
        {
          "indexed": true,
          "internalType": "address",
          "name": "spender",
          "type": "address"
        },
        {
          "indexed": false,
          "internalType": "uint256",
          "name": "value",
          "type": "uint256"
        }
      ],
      "name": "Approval",
      "type": "event"
    },
    {
      "anonymous": false,
      "inputs": [
        {
          "indexed": true,
          "internalType": "address",
          "name": "_burner",
          "type": "address"
        },
        {
          "indexed": true,
          "internalType": "address",
          "name": "_from",
          "type": "address"
        },
        {
          "indexed": false,
          "internalType": "uint256",
          "name": "_amount",
          "type": "uint256"
        }
      ],
      "name": "Burned",
      "type": "event"
    },
    {
      "anonymous": false,
      "inputs": [
        {
          "indexed": false,
          "internalType": "uint64",
          "name": "version",
          "type": "uint64"
        }
      ],
      "name": "Initialized",
      "type": "event"
    },
    {
      "anonymous": false,
      "inputs": [
        {
          "indexed": true,
          "internalType": "address",
          "name": "_minter",
          "type": "address"
        },
        {
          "indexed": true,
          "internalType": "address",
          "name": "_to",
          "type": "address"
        },
        {
          "indexed": false,
          "internalType": "uint256",
          "name": "_amount",
          "type": "uint256"
        }
      ],
      "name": "Minted",
      "type": "event"
    },
    {
      "anonymous": false,
      "inputs": [
        {
          "indexed": false,
          "internalType": "address",
          "name": "account",
          "type": "address"
        }
      ],
      "name": "Paused",
      "type": "event"
    },
    {
      "anonymous": false,
      "inputs": [
        {
          "indexed": true,
          "internalType": "address",
          "name": "_address",
          "type": "address"
        }
      ],
      "name": "RemovedFromBlacklist",
      "type": "event"
    },
    {
      "anonymous": false,
      "inputs": [
        {
          "indexed": true,
          "internalType": "bytes32",
          "name": "role",
          "type": "bytes32"
        },
        {
          "indexed": true,
          "internalType": "bytes32",
          "name": "previousAdminRole",
          "type": "bytes32"
        },
        {
          "indexed": true,
          "internalType": "bytes32",
          "name": "newAdminRole",
          "type": "bytes32"
        }
      ],
      "name": "RoleAdminChanged",
      "type": "event"
    },
    {
      "anonymous": false,
      "inputs": [
        {
          "indexed": true,
          "internalType": "bytes32",
          "name": "role",
          "type": "bytes32"
        },
        {
          "indexed": true,
          "internalType": "address",
          "name": "account",
          "type": "address"
        },
        {
          "indexed": true,
          "internalType": "address",
          "name": "sender",
          "type": "address"
        }
      ],
      "name": "RoleGranted",
      "type": "event"
    },
    {
      "anonymous": false,
      "inputs": [
        {
          "indexed": true,
          "internalType": "bytes32",
          "name": "role",
          "type": "bytes32"
        },
        {
          "indexed": true,
          "internalType": "address",
          "name": "account",
          "type": "address"
        },
        {
          "indexed": true,
          "internalType": "address",
          "name": "sender",
          "type": "address"
        }
      ],
      "name": "RoleRevoked",
      "type": "event"
    },
    {
      "anonymous": false,
      "inputs": [
        {
          "indexed": true,
          "internalType": "address",
          "name": "from",
          "type": "address"
        },
        {
          "indexed": true,
          "internalType": "address",
          "name": "to",
          "type": "address"
        },
        {
          "indexed": false,
          "internalType": "uint256",
          "name": "value",
          "type": "uint256"
        }
      ],
      "name": "Transfer",
      "type": "event"
    },
    {
      "anonymous": false,
      "inputs": [
        {
          "indexed": false,
          "internalType": "address",
          "name": "account",
          "type": "address"
        }
      ],
      "name": "Unpaused",
      "type": "event"
    },
    {
      "inputs": [],
      "name": "BLACKLISTER_ROLE",
      "outputs": [
        {
          "internalType": "bytes32",
          "name": "",
          "type": "bytes32"
        }
      ],
      "stateMutability": "view",
      "type": "function"
    },
    {
      "inputs": [],
      "name": "BURNER_ROLE",
      "outputs": [
        {
          "internalType": "bytes32",
          "name": "",
          "type": "bytes32"
        }
      ],
      "stateMutability": "view",
      "type": "function"
    },
    {
      "inputs": [],
      "name": "DEFAULT_ADMIN_ROLE",
      "outputs": [
        {
          "internalType": "bytes32",
          "name": "",
          "type": "bytes32"
        }
      ],
      "stateMutability": "view",
      "type": "function"
    },
    {
      "inputs": [],
      "name": "MINTER_ROLE",
      "outputs": [
        {
          "internalType": "bytes32",
          "name": "",
          "type": "bytes32"
        }
      ],
      "stateMutability": "view",
      "type": "function"
    },
    {
      "inputs": [],
      "name": "PAUSER_ROLE",
      "outputs": [
        {
          "internalType": "bytes32",
          "name": "",
          "type": "bytes32"
        }
      ],
      "stateMutability": "view",
      "type": "function"
    },
    {
      "inputs": [
        {
          "internalType": "address",
          "name": "_address",
          "type": "address"
        }
      ],
      "name": "addToBlacklist",
      "outputs": [],
      "stateMutability": "nonpayable",
      "type": "function"
    },
    {
      "inputs": [
        {
          "internalType": "address",
          "name": "owner",
          "type": "address"
        },
        {
          "internalType": "address",
          "name": "spender",
          "type": "address"
        }
      ],
      "name": "allowance",
      "outputs": [
        {
          "internalType": "uint256",
          "name": "",
          "type": "uint256"
        }
      ],
      "stateMutability": "view",
      "type": "function"
    },
    {
      "inputs": [
        {
          "internalType": "address",
          "name": "spender",
          "type": "address"
        },
        {
          "internalType": "uint256",
          "name": "value",
          "type": "uint256"
        }
      ],
      "name": "approve",
      "outputs": [
        {
          "internalType": "bool",
          "name": "",
          "type": "bool"
        }
      ],
      "stateMutability": "nonpayable",
      "type": "function"
    },
    {
      "inputs": [
        {
          "internalType": "address",
          "name": "account",
          "type": "address"
        }
      ],
      "name": "balanceOf",
      "outputs": [
        {
          "internalType": "uint256",
          "name": "",
          "type": "uint256"
        }
      ],
      "stateMutability": "view",
      "type": "function"
    },
    {
      "inputs": [
        {
          "internalType": "address",
          "name": "_from",
          "type": "address"
        },
        {
          "internalType": "uint256",
          "name": "_amount",
          "type": "uint256"
        }
      ],
      "name": "burn",
      "outputs": [
        {
          "internalType": "bool",
          "name": "success",
          "type": "bool"
        }
      ],
      "stateMutability": "nonpayable",
      "type": "function"
    },
    {
      "inputs": [],
      "name": "decimals",
      "outputs": [
        {
          "internalType": "uint8",
          "name": "",
          "type": "uint8"
        }
      ],
      "stateMutability": "view",
      "type": "function"
    },
    {
      "inputs": [
        {
          "internalType": "bytes32",
          "name": "role",
          "type": "bytes32"
        }
      ],
      "name": "getRoleAdmin",
      "outputs": [
        {
          "internalType": "bytes32",
          "name": "",
          "type": "bytes32"
        }
      ],
      "stateMutability": "view",
      "type": "function"
    },
    {
      "inputs": [
        {
          "internalType": "bytes32",
          "name": "role",
          "type": "bytes32"
        },
        {
          "internalType": "address",
          "name": "account",
          "type": "address"
        }
      ],
      "name": "grantRole",
      "outputs": [],
      "stateMutability": "nonpayable",
      "type": "function"
    },
    {
      "inputs": [
        {
          "internalType": "bytes32",
          "name": "role",
          "type": "bytes32"
        },
        {
          "internalType": "address",
          "name": "account",
          "type": "address"
        }
      ],
      "name": "hasRole",
      "outputs": [
        {
          "internalType": "bool",
          "name": "",
          "type": "bool"
        }
      ],
      "stateMutability": "view",
      "type": "function"
    },
    {
      "inputs": [
        {
          "internalType": "address",
          "name": "_admin",
          "type": "address"
        }
      ],
      "name": "initialize",
      "outputs": [],
      "stateMutability": "nonpayable",
      "type": "function"
    },
    {
      "inputs": [
        {
          "internalType": "address",
          "name": "",
          "type": "address"
        }
      ],
      "name": "isBlacklisted",
      "outputs": [
        {
          "internalType": "bool",
          "name": "",
          "type": "bool"
        }
      ],
      "stateMutability": "view",
      "type": "function"
    },
    {
      "inputs": [
        {
          "internalType": "address",
          "name": "_to",
          "type": "address"
        },
        {
          "internalType": "uint256",
          "name": "_amount",
          "type": "uint256"
        }
      ],
      "name": "mint",
      "outputs": [
        {
          "internalType": "bool",
          "name": "success",
          "type": "bool"
        }
      ],
      "stateMutability": "nonpayable",
      "type": "function"
    },
    {
      "inputs": [],
      "name": "name",
      "outputs": [
        {
          "internalType": "string",
          "name": "",
          "type": "string"
        }
      ],
      "stateMutability": "view",
      "type": "function"
    },
    {
      "inputs": [],
      "name": "pause",
      "outputs": [],
      "stateMutability": "nonpayable",
      "type": "function"
    },
    {
      "inputs": [],
      "name": "paused",
      "outputs": [
        {
          "internalType": "bool",
          "name": "",
          "type": "bool"
        }
      ],
      "stateMutability": "view",
      "type": "function"
    },
    {
      "inputs": [
        {
          "internalType": "address",
          "name": "_address",
          "type": "address"
        }
      ],
      "name": "removeFromBlacklist",
      "outputs": [],
      "stateMutability": "nonpayable",
      "type": "function"
    },
    {
      "inputs": [
        {
          "internalType": "bytes32",
          "name": "role",
          "type": "bytes32"
        },
        {
          "internalType": "address",
          "name": "callerConfirmation",
          "type": "address"
        }
      ],
      "name": "renounceRole",
      "outputs": [],
      "stateMutability": "nonpayable",
      "type": "function"
    },
    {
      "inputs": [
        {
          "internalType": "bytes32",
          "name": "role",
          "type": "bytes32"
        },
        {
          "internalType": "address",
          "name": "account",
          "type": "address"
        }
      ],
      "name": "revokeRole",
      "outputs": [],
      "stateMutability": "nonpayable",
      "type": "function"
    },
    {
      "inputs": [
        {
          "internalType": "bytes4",
          "name": "interfaceId",
          "type": "bytes4"
        }
      ],
      "name": "supportsInterface",
      "outputs": [
        {
          "internalType": "bool",
          "name": "",
          "type": "bool"
        }
      ],
      "stateMutability": "view",
      "type": "function"
    },
    {
      "inputs": [],
      "name": "symbol",
      "outputs": [
        {
          "internalType": "string",
          "name": "",
          "type": "string"
        }
      ],
      "stateMutability": "view",
      "type": "function"
    },
    {
      "inputs": [],
      "name": "totalSupply",
      "outputs": [
        {
          "internalType": "uint256",
          "name": "",
          "type": "uint256"
        }
      ],
      "stateMutability": "view",
      "type": "function"
    },
    {
      "inputs": [
        {
          "internalType": "address",
          "name": "_to",
          "type": "address"
        },
        {
          "internalType": "uint256",
          "name": "_amount",
          "type": "uint256"
        }
      ],
      "name": "transfer",
      "outputs": [
        {
          "internalType": "bool",
          "name": "success",
          "type": "bool"
        }
      ],
      "stateMutability": "nonpayable",
      "type": "function"
    },
    {
      "inputs": [
        {
          "internalType": "address",
          "name": "_from",
          "type": "address"
        },
        {
          "internalType": "address",
          "name": "_to",
          "type": "address"
        },
        {
          "internalType": "uint256",
          "name": "_amount",
          "type": "uint256"
        }
      ],
      "name": "transferFrom",
      "outputs": [
        {
          "internalType": "bool",
          "name": "success",
          "type": "bool"
        }
      ],
      "stateMutability": "nonpayable",
      "type": "function"
    },
    {
      "inputs": [],
      "name": "unpause",
      "outputs": [],
      "stateMutability": "nonpayable",
      "type": "function"
    }
  ],
  "transactionHash": "0xca5be6b878c0dec9140c70c6294ead245f1260caa29052b62cb14e013ccfd789",
  "args": [],
  "numDeployments": 1,
  "solcInputHash": "0ec691bad58c61ca0a4b05ee010cd128",
  "bytecode": "0x608060405234801561001057600080fd5b5061001961001e565b6100d0565b7ff0c57e16840df040f15088dc2f81fe391c3923bec73e23a9662efc9c229c6a00805468010000000000000000900460ff161561006e5760405163f92ee8a960e01b815260040160405180910390fd5b80546001600160401b03908116146100cd5780546001600160401b0319166001600160401b0390811782556040519081527fc7f505b2f371ae2175ee4913f4499e1f2633a7b5936321eed1cdaeb6115181d29060200160405180910390a15b50565b6120c080620000e06000396000f3fe608060405234801561001057600080fd5b50600436106101cf5760003560e01c80635c975abb11610104578063a9059cbb116100a2578063dd62ed3e11610071578063dd62ed3e146104b8578063e63ab1e91461051d578063f515e6f214610544578063fe575a871461056b57600080fd5b8063a9059cbb14610458578063c4d66de81461046b578063d53913931461047e578063d547741f146104a557600080fd5b806391d14854116100de57806391d14854146103d057806395d89b41146104355780639dc29fac1461043d578063a217fddf1461045057600080fd5b80635c975abb1461034957806370a08231146103735780638456cb59146103c857600080fd5b80632f2ff15d116101715780633f4ba83a1161014b5780633f4ba83a1461030857806340c10f191461031057806344337ea114610323578063537df3b61461033657600080fd5b80632f2ff15d146102d1578063313ce567146102e657806336568abe146102f557600080fd5b806318160ddd116101ad57806318160ddd1461022457806323b872dd14610255578063248a9ca314610268578063282c51f3146102aa57600080fd5b806301ffc9a7146101d457806306fdde03146101fc578063095ea7b314610211575b600080fd5b6101e76101e2366004611c9d565b61058e565b60405190151581526020015b60405180910390f35b610204610627565b6040516101f39190611ce6565b6101e761021f366004611d7c565b6106fc565b7f52c63247e1f47db19d5ce0460030c497f067ca4cebf71ba98eeadabe20bace02545b6040519081526020016101f3565b6101e7610263366004611da6565b610714565b610247610276366004611de2565b60009081527f02dd7bc7dec4dceedda775e58dd541e08a116c6c53815c0bd028192f7b626800602052604090206001015490565b6102477f3c11d16cbaffd01df69ce1c404f6340ee057498f5f00246190ea54220576a84881565b6102e46102df366004611dfb565b610890565b005b604051600681526020016101f3565b6102e4610303366004611dfb565b6108da565b6102e4610938565b6101e761031e366004611d7c565b610975565b6102e4610331366004611e27565b610a02565b6102e4610344366004611e27565b610b1f565b7fcd5ed15c6e187e77e9aee88184c21f4f2182ab5827cb3b7e07fbedcd63f033005460ff166101e7565b610247610381366004611e27565b73ffffffffffffffffffffffffffffffffffffffff1660009081527f52c63247e1f47db19d5ce0460030c497f067ca4cebf71ba98eeadabe20bace00602052604090205490565b6102e4610c35565b6101e76103de366004611dfb565b60009182527f02dd7bc7dec4dceedda775e58dd541e08a116c6c53815c0bd028192f7b6268006020908152604080842073ffffffffffffffffffffffffffffffffffffffff93909316845291905290205460ff1690565b610204610c6f565b6101e761044b366004611d7c565b610cc0565b610247600081565b6101e7610466366004611d7c565b610dd0565b6102e4610479366004611e27565b610eca565b6102477f9f2df0fed2c77648de5860a4cc508cd0818c85b8b8a1ab4ceeef8d981c8956a681565b6102e46104b3366004611dfb565b61110a565b6102476104c6366004611e42565b73ffffffffffffffffffffffffffffffffffffffff91821660009081527f52c63247e1f47db19d5ce0460030c497f067ca4cebf71ba98eeadabe20bace016020908152604080832093909416825291909152205490565b6102477f65d7a28e3265b37a6474929f336521b332c1681b933f6cb9f3376673440d862a81565b6102477f98db8a220cd0f09badce9f22d0ba7e93edb3d404448cc3560d391ab096ad16e981565b6101e7610579366004611e27565b60006020819052908152604090205460ff1681565b60007fffffffff0000000000000000000000000000000000000000000000000000000082167f7965db0b00000000000000000000000000000000000000000000000000000000148061062157507f01ffc9a7000000000000000000000000000000000000000000000000000000007fffffffff000000000000000000000000000000000000000000000000000000008316145b92915050565b7f52c63247e1f47db19d5ce0460030c497f067ca4cebf71ba98eeadabe20bace0380546060917f52c63247e1f47db19d5ce0460030c497f067ca4cebf71ba98eeadabe20bace009161067890611e6c565b80601f01602080910402602001604051908101604052809291908181526020018280546106a490611e6c565b80156106f15780601f106106c6576101008083540402835291602001916106f1565b820191906000526020600020905b8154815290600101906020018083116106d457829003601f168201915b505050505091505090565b60003361070a81858561114e565b5060019392505050565b3360008181526020819052604081205490919060ff161561077e576040517fffa4e61800000000000000000000000000000000000000000000000000000000815273ffffffffffffffffffffffffffffffffffffffff821660048201526024015b60405180910390fd5b73ffffffffffffffffffffffffffffffffffffffff8516600090815260208190526040902054859060ff16156107f8576040517fffa4e61800000000000000000000000000000000000000000000000000000000815273ffffffffffffffffffffffffffffffffffffffff82166004820152602401610775565b73ffffffffffffffffffffffffffffffffffffffff8516600090815260208190526040902054859060ff1615610872576040517fffa4e61800000000000000000000000000000000000000000000000000000000815273ffffffffffffffffffffffffffffffffffffffff82166004820152602401610775565b61087a61115b565b6108858787876111b9565b979650505050505050565b60008281527f02dd7bc7dec4dceedda775e58dd541e08a116c6c53815c0bd028192f7b62680060205260409020600101546108ca816111dd565b6108d483836111e7565b50505050565b73ffffffffffffffffffffffffffffffffffffffff81163314610929576040517f6697b23200000000000000000000000000000000000000000000000000000000815260040160405180910390fd5b6109338282611308565b505050565b7f65d7a28e3265b37a6474929f336521b332c1681b933f6cb9f3376673440d862a610962816111dd565b61096a6113e6565b610972611441565b50565b60007f9f2df0fed2c77648de5860a4cc508cd0818c85b8b8a1ab4ceeef8d981c8956a66109a1816111dd565b6109ab84846114de565b60405183815273ffffffffffffffffffffffffffffffffffffffff85169033907f9d228d69b5fdb8d273a2336f8fb8612d039631024ea9bf09c424a9503aa078f09060200160405180910390a35060019392505050565b7f98db8a220cd0f09badce9f22d0ba7e93edb3d404448cc3560d391ab096ad16e9610a2c816111dd565b73ffffffffffffffffffffffffffffffffffffffff8216600090815260208190526040902054829060ff1615610aa6576040517fffa4e61800000000000000000000000000000000000000000000000000000000815273ffffffffffffffffffffffffffffffffffffffff82166004820152602401610775565b73ffffffffffffffffffffffffffffffffffffffff831660008181526020819052604080822080547fffffffffffffffffffffffffffffffffffffffffffffffffffffffffffffff00166001179055517ff9b68063b051b82957fa193585681240904fed808db8b30fc5a2d2202c6ed6279190a2505050565b7f98db8a220cd0f09badce9f22d0ba7e93edb3d404448cc3560d391ab096ad16e9610b49816111dd565b73ffffffffffffffffffffffffffffffffffffffff821660009081526020819052604090205460ff16610bc0576040517f7be8837900000000000000000000000000000000000000000000000000000000815273ffffffffffffffffffffffffffffffffffffffff83166004820152602401610775565b73ffffffffffffffffffffffffffffffffffffffff821660008181526020819052604080822080547fffffffffffffffffffffffffffffffffffffffffffffffffffffffffffffff00169055517f2b6bf71b58b3583add364b3d9060ebf8019650f65f5be35f5464b9cb3e4ba2d49190a25050565b7f65d7a28e3265b37a6474929f336521b332c1681b933f6cb9f3376673440d862a610c5f816111dd565b610c6761115b565b61097261153e565b7f52c63247e1f47db19d5ce0460030c497f067ca4cebf71ba98eeadabe20bace0480546060917f52c63247e1f47db19d5ce0460030c497f067ca4cebf71ba98eeadabe20bace009161067890611e6c565b60007f3c11d16cbaffd01df69ce1c404f6340ee057498f5f00246190ea54220576a848610cec816111dd565b73ffffffffffffffffffffffffffffffffffffffff8416600090815260208190526040902054849060ff1615610d66576040517fffa4e61800000000000000000000000000000000000000000000000000000000815273ffffffffffffffffffffffffffffffffffffffff82166004820152602401610775565b610d6e61115b565b610d7885856115b7565b60405184815273ffffffffffffffffffffffffffffffffffffffff86169033907f6ab368f832c266c8eb942b84fbcaa20aedc24a699d2a05fae2568028733b1d099060200160405180910390a3506001949350505050565b3360008181526020819052604081205490919060ff1615610e35576040517fffa4e61800000000000000000000000000000000000000000000000000000000815273ffffffffffffffffffffffffffffffffffffffff82166004820152602401610775565b73ffffffffffffffffffffffffffffffffffffffff8416600090815260208190526040902054849060ff1615610eaf576040517fffa4e61800000000000000000000000000000000000000000000000000000000815273ffffffffffffffffffffffffffffffffffffffff82166004820152602401610775565b610eb761115b565b610ec18585611613565b95945050505050565b6000610ed4611621565b805490915060ff68010000000000000000820416159067ffffffffffffffff16600081158015610f015750825b905060008267ffffffffffffffff166001148015610f1e5750303b155b905081158015610f2c575080155b15610f63576040517ff92ee8a900000000000000000000000000000000000000000000000000000000815260040160405180910390fd5b84547fffffffffffffffffffffffffffffffffffffffffffffffff00000000000000001660011785558315610fc45784547fffffffffffffffffffffffffffffffffffffffffffffff00ffffffffffffffff16680100000000000000001785555b73ffffffffffffffffffffffffffffffffffffffff8616611011576040517fd92e233d00000000000000000000000000000000000000000000000000000000815260040160405180910390fd5b6110856040518060400160405280600b81526020017f57726170706564205852500000000000000000000000000000000000000000008152506040518060400160405280600481526020017f775852500000000000000000000000000000000000000000000000000000000081525061164a565b61108d61165c565b61109561165c565b6110a06000876111e7565b5083156111025784547fffffffffffffffffffffffffffffffffffffffffffffff00ffffffffffffffff168555604051600181527fc7f505b2f371ae2175ee4913f4499e1f2633a7b5936321eed1cdaeb6115181d29060200160405180910390a15b505050505050565b60008281527f02dd7bc7dec4dceedda775e58dd541e08a116c6c53815c0bd028192f7b6268006020526040902060010154611144816111dd565b6108d48383611308565b6109338383836001611664565b7fcd5ed15c6e187e77e9aee88184c21f4f2182ab5827cb3b7e07fbedcd63f033005460ff16156111b7576040517fd93c066500000000000000000000000000000000000000000000000000000000815260040160405180910390fd5b565b6000336111c78582856117d1565b6111d28585856118ba565b506001949350505050565b6109728133611965565b60008281527f02dd7bc7dec4dceedda775e58dd541e08a116c6c53815c0bd028192f7b6268006020818152604080842073ffffffffffffffffffffffffffffffffffffffff8616855290915282205460ff166112fe5760008481526020828152604080832073ffffffffffffffffffffffffffffffffffffffff87168452909152902080547fffffffffffffffffffffffffffffffffffffffffffffffffffffffffffffff0016600117905561129a3390565b73ffffffffffffffffffffffffffffffffffffffff168373ffffffffffffffffffffffffffffffffffffffff16857f2f8788117e7eff1d82e926ec794901d17c78024a50270940304540a733656f0d60405160405180910390a46001915050610621565b6000915050610621565b60008281527f02dd7bc7dec4dceedda775e58dd541e08a116c6c53815c0bd028192f7b6268006020818152604080842073ffffffffffffffffffffffffffffffffffffffff8616855290915282205460ff16156112fe5760008481526020828152604080832073ffffffffffffffffffffffffffffffffffffffff8716808552925280832080547fffffffffffffffffffffffffffffffffffffffffffffffffffffffffffffff0016905551339287917ff6391f5c32d9c69d2a47ea670b442974b53935d1edc7fd64eb21e047a839171b9190a46001915050610621565b7fcd5ed15c6e187e77e9aee88184c21f4f2182ab5827cb3b7e07fbedcd63f033005460ff166111b7576040517f8dfc202b00000000000000000000000000000000000000000000000000000000815260040160405180910390fd5b6114496113e6565b7fcd5ed15c6e187e77e9aee88184c21f4f2182ab5827cb3b7e07fbedcd63f0330080547fffffffffffffffffffffffffffffffffffffffffffffffffffffffffffffff001681557f5db9ee0a495bf2e6ff9c91a7834c1ba4fdd244a5e8aa4e537bd38aeae4b073aa335b60405173ffffffffffffffffffffffffffffffffffffffff909116815260200160405180910390a150565b73ffffffffffffffffffffffffffffffffffffffff821661152e576040517fec442f0500000000000000000000000000000000000000000000000000000000815260006004820152602401610775565b61153a60008383611a0c565b5050565b61154661115b565b7fcd5ed15c6e187e77e9aee88184c21f4f2182ab5827cb3b7e07fbedcd63f0330080547fffffffffffffffffffffffffffffffffffffffffffffffffffffffffffffff001660011781557f62e78cea01bee320cd4e420270b5ea74000d11b0c9f74754ebdbfc544b05a258336114b3565b73ffffffffffffffffffffffffffffffffffffffff8216611607576040517f96c6fd1e00000000000000000000000000000000000000000000000000000000815260006004820152602401610775565b61153a82600083611a0c565b60003361070a8185856118ba565b6000807ff0c57e16840df040f15088dc2f81fe391c3923bec73e23a9662efc9c229c6a00610621565b611652611bdd565b61153a8282611c1b565b6111b7611bdd565b7f52c63247e1f47db19d5ce0460030c497f067ca4cebf71ba98eeadabe20bace0073ffffffffffffffffffffffffffffffffffffffff85166116d5576040517fe602df0500000000000000000000000000000000000000000000000000000000815260006004820152602401610775565b73ffffffffffffffffffffffffffffffffffffffff8416611725576040517f94280d6200000000000000000000000000000000000000000000000000000000815260006004820152602401610775565b73ffffffffffffffffffffffffffffffffffffffff8086166000908152600183016020908152604080832093881683529290522083905581156117ca578373ffffffffffffffffffffffffffffffffffffffff168573ffffffffffffffffffffffffffffffffffffffff167f8c5be1e5ebec7d5bd14f71427d1e84f3dd0314c0f7b2291e5b200ac8c7c3b925856040516117c191815260200190565b60405180910390a35b5050505050565b73ffffffffffffffffffffffffffffffffffffffff83811660009081527f52c63247e1f47db19d5ce0460030c497f067ca4cebf71ba98eeadabe20bace0160209081526040808320938616835292905220547fffffffffffffffffffffffffffffffffffffffffffffffffffffffffffffffff8110156108d457818110156118ab576040517ffb8f41b200000000000000000000000000000000000000000000000000000000815273ffffffffffffffffffffffffffffffffffffffff841660048201526024810182905260448101839052606401610775565b6108d484848484036000611664565b73ffffffffffffffffffffffffffffffffffffffff831661190a576040517f96c6fd1e00000000000000000000000000000000000000000000000000000000815260006004820152602401610775565b73ffffffffffffffffffffffffffffffffffffffff821661195a576040517fec442f0500000000000000000000000000000000000000000000000000000000815260006004820152602401610775565b610933838383611a0c565b60008281527f02dd7bc7dec4dceedda775e58dd541e08a116c6c53815c0bd028192f7b6268006020908152604080832073ffffffffffffffffffffffffffffffffffffffff8516845290915290205460ff1661153a576040517fe2517d3f00000000000000000000000000000000000000000000000000000000815273ffffffffffffffffffffffffffffffffffffffff8216600482015260248101839052604401610775565b7f52c63247e1f47db19d5ce0460030c497f067ca4cebf71ba98eeadabe20bace0073ffffffffffffffffffffffffffffffffffffffff8416611a675781816002016000828254611a5c9190611ebf565b90915550611b199050565b73ffffffffffffffffffffffffffffffffffffffff841660009081526020829052604090205482811015611aed576040517fe450d38c00000000000000000000000000000000000000000000000000000000815273ffffffffffffffffffffffffffffffffffffffff861660048201526024810182905260448101849052606401610775565b73ffffffffffffffffffffffffffffffffffffffff851660009081526020839052604090209083900390555b73ffffffffffffffffffffffffffffffffffffffff8316611b44576002810180548390039055611b70565b73ffffffffffffffffffffffffffffffffffffffff831660009081526020829052604090208054830190555b8273ffffffffffffffffffffffffffffffffffffffff168473ffffffffffffffffffffffffffffffffffffffff167fddf252ad1be2c89b69c2b068fc378daa952ba7f163c4a11628f55a4df523b3ef84604051611bcf91815260200190565b60405180910390a350505050565b611be5611c7e565b6111b7576040517fd7e6bcf800000000000000000000000000000000000000000000000000000000815260040160405180910390fd5b611c23611bdd565b7f52c63247e1f47db19d5ce0460030c497f067ca4cebf71ba98eeadabe20bace007f52c63247e1f47db19d5ce0460030c497f067ca4cebf71ba98eeadabe20bace03611c6f8482611f70565b50600481016108d48382611f70565b6000611c88611621565b5468010000000000000000900460ff16919050565b600060208284031215611caf57600080fd5b81357fffffffff0000000000000000000000000000000000000000000000000000000081168114611cdf57600080fd5b9392505050565b60006020808352835180602085015260005b81811015611d1457858101830151858201604001528201611cf8565b5060006040828601015260407fffffffffffffffffffffffffffffffffffffffffffffffffffffffffffffffe0601f8301168501019250505092915050565b803573ffffffffffffffffffffffffffffffffffffffff81168114611d7757600080fd5b919050565b60008060408385031215611d8f57600080fd5b611d9883611d53565b946020939093013593505050565b600080600060608486031215611dbb57600080fd5b611dc484611d53565b9250611dd260208501611d53565b9150604084013590509250925092565b600060208284031215611df457600080fd5b5035919050565b60008060408385031215611e0e57600080fd5b82359150611e1e60208401611d53565b90509250929050565b600060208284031215611e3957600080fd5b611cdf82611d53565b60008060408385031215611e5557600080fd5b611e5e83611d53565b9150611e1e60208401611d53565b600181811c90821680611e8057607f821691505b602082108103611eb9577f4e487b7100000000000000000000000000000000000000000000000000000000600052602260045260246000fd5b50919050565b80820180821115610621577f4e487b7100000000000000000000000000000000000000000000000000000000600052601160045260246000fd5b7f4e487b7100000000000000000000000000000000000000000000000000000000600052604160045260246000fd5b601f821115610933576000816000526020600020601f850160051c81016020861015611f515750805b601f850160051c820191505b8181101561110257828155600101611f5d565b815167ffffffffffffffff811115611f8a57611f8a611ef9565b611f9e81611f988454611e6c565b84611f28565b602080601f831160018114611ff15760008415611fbb5750858301515b7fffffffffffffffffffffffffffffffffffffffffffffffffffffffffffffffff600386901b1c1916600185901b178555611102565b6000858152602081207fffffffffffffffffffffffffffffffffffffffffffffffffffffffffffffffe08616915b8281101561203e5788860151825594840194600190910190840161201f565b508582101561207a57878501517fffffffffffffffffffffffffffffffffffffffffffffffffffffffffffffffff600388901b60f8161c191681555b5050505050600190811b0190555056fea26469706673582212206a157d7e574c1bb417f3df6580c9e42c1f0a11dd840084e973d5d23cdd2c245364736f6c63430008160033",
  "devdoc": {
    "details": "Implements role-based access control for minting, burning, pausing, and blacklisting.      Includes blacklist functionality and an emergency pause mechanism.",
    "errors": {
      "AccessControlBadConfirmation()": [
        {
          "details": "The caller of a function is not the expected one. NOTE: Don't confuse with {AccessControlUnauthorizedAccount}."
        }
      ],
      "AccessControlUnauthorizedAccount(address,bytes32)": [
        {
          "details": "The `account` is missing a role."
        }
      ],
      "Blacklisted(address)": [
        {
          "params": {
            "_address": "Blacklisted address that was involved in the operation"
          }
        }
      ],
      "ERC20InsufficientAllowance(address,uint256,uint256)": [
        {
          "details": "Indicates a failure with the `spender`s `allowance`. Used in transfers.",
          "params": {
            "allowance": "Amount of tokens a `spender` is allowed to operate with.",
            "needed": "Minimum amount required to perform a transfer.",
            "spender": "Address that may be allowed to operate on tokens without being their owner."
          }
        }
      ],
      "ERC20InsufficientBalance(address,uint256,uint256)": [
        {
          "details": "Indicates an error related to the current `balance` of a `sender`. Used in transfers.",
          "params": {
            "balance": "Current balance for the interacting account.",
            "needed": "Minimum amount required to perform a transfer.",
            "sender": "Address whose tokens are being transferred."
          }
        }
      ],
      "ERC20InvalidApprover(address)": [
        {
          "details": "Indicates a failure with the `approver` of a token to be approved. Used in approvals.",
          "params": {
            "approver": "Address initiating an approval operation."
          }
        }
      ],
      "ERC20InvalidReceiver(address)": [
        {
          "details": "Indicates a failure with the token `receiver`. Used in transfers.",
          "params": {
            "receiver": "Address to which tokens are being transferred."
          }
        }
      ],
      "ERC20InvalidSender(address)": [
        {
          "details": "Indicates a failure with the token `sender`. Used in transfers.",
          "params": {
            "sender": "Address whose tokens are being transferred."
          }
        }
      ],
      "ERC20InvalidSpender(address)": [
        {
          "details": "Indicates a failure with the `spender` to be approved. Used in approvals.",
          "params": {
            "spender": "Address that may be allowed to operate on tokens without being their owner."
          }
        }
      ],
      "EnforcedPause()": [
        {
          "details": "The operation failed because the contract is paused."
        }
      ],
      "ExpectedPause()": [
        {
          "details": "The operation failed because the contract is not paused."
        }
      ],
      "InvalidInitialization()": [
        {
          "details": "The contract is already initialized."
        }
      ],
      "NotBlacklisted(address)": [
        {
          "params": {
            "_address": "Address that is not currently blacklisted"
          }
        }
      ],
      "NotInitializing()": [
        {
          "details": "The contract is not initializing."
        }
      ]
    },
    "events": {
      "AddedToBlacklist(address)": {
        "params": {
          "_address": "Address that was blacklisted"
        }
      },
      "Approval(address,address,uint256)": {
        "details": "Emitted when the allowance of a `spender` for an `owner` is set by a call to {approve}. `value` is the new allowance."
      },
      "Burned(address,address,uint256)": {
        "params": {
          "_amount": "Amount of tokens that were burned",
          "_burner": "Address that executed the burning operation",
          "_from": "Address that sent the tokens to be burned"
        }
      },
      "Initialized(uint64)": {
        "details": "Triggered when the contract has been initialized or reinitialized."
      },
      "Minted(address,address,uint256)": {
        "params": {
          "_amount": "Amount of tokens that were minted",
          "_minter": "Address that executed the minting operation",
          "_to": "Address that received the minted tokens"
        }
      },
      "Paused(address)": {
        "details": "Emitted when the pause is triggered by `account`."
      },
      "RemovedFromBlacklist(address)": {
        "params": {
          "_address": "Address that was removed from the blacklist"
        }
      },
      "RoleAdminChanged(bytes32,bytes32,bytes32)": {
        "details": "Emitted when `newAdminRole` is set as ``role``'s admin role, replacing `previousAdminRole` `DEFAULT_ADMIN_ROLE` is the starting admin for all roles, despite {RoleAdminChanged} not being emitted to signal this."
      },
      "RoleGranted(bytes32,address,address)": {
        "details": "Emitted when `account` is granted `role`. `sender` is the account that originated the contract call. This account bears the admin role (for the granted role). Expected in cases where the role was granted using the internal {AccessControl-_grantRole}."
      },
      "RoleRevoked(bytes32,address,address)": {
        "details": "Emitted when `account` is revoked `role`. `sender` is the account that originated the contract call:   - if using `revokeRole`, it is the admin role bearer   - if using `renounceRole`, it is the role bearer (i.e. `account`)"
      },
      "Transfer(address,address,uint256)": {
        "details": "Emitted when `value` tokens are moved from one account (`from`) to another (`to`). Note that `value` may be zero."
      },
      "Unpaused(address)": {
        "details": "Emitted when the pause is lifted by `account`."
      }
    },
    "kind": "dev",
    "methods": {
      "addToBlacklist(address)": {
        "details": "Only callable by accounts with `BLACKLISTER_ROLE`. Address must not already be blacklisted.",
        "params": {
          "_address": "Address to add to the blacklist"
        }
      },
      "allowance(address,address)": {
        "details": "Returns the remaining number of tokens that `spender` will be allowed to spend on behalf of `owner` through {transferFrom}. This is zero by default. This value changes when {approve} or {transferFrom} are called."
      },
      "approve(address,uint256)": {
        "details": "See {IERC20-approve}. NOTE: If `value` is the maximum `uint256`, the allowance is not updated on `transferFrom`. This is semantically equivalent to an infinite approval. Requirements: - `spender` cannot be the zero address."
      },
      "balanceOf(address)": {
        "details": "Returns the value of tokens owned by `account`."
      },
      "burn(address,uint256)": {
        "details": "Only callable by accounts with `BURNER_ROLE`.      It reverts if the address is blacklisted or the contract is paused.",
        "params": {
          "_amount": "Amount of tokens to burn",
          "_from": "Address to burn tokens from"
        },
        "returns": {
          "success": "Always returns true"
        }
      },
      "decimals()": {
        "details": "Overrides the default 18 decimals to use 6."
      },
      "getRoleAdmin(bytes32)": {
        "details": "Returns the admin role that controls `role`. See {grantRole} and {revokeRole}. To change a role's admin, use {_setRoleAdmin}."
      },
      "grantRole(bytes32,address)": {
        "details": "Grants `role` to `account`. If `account` had not been already granted `role`, emits a {RoleGranted} event. Requirements: - the caller must have ``role``'s admin role. May emit a {RoleGranted} event."
      },
      "hasRole(bytes32,address)": {
        "details": "Returns `true` if `account` has been granted `role`."
      },
      "mint(address,uint256)": {
        "details": "Only callable by accounts with `MINTER_ROLE`.      It does not revert if the recipient is blacklisted or the contract is paused,      as funds cannot be debited in that state.",
        "params": {
          "_amount": "Amount of tokens to mint",
          "_to": "Address to mint tokens to"
        },
        "returns": {
          "success": "Always returns true"
        }
      },
      "name()": {
        "details": "Returns the name of the token."
      },
      "pause()": {
        "details": "Only callable by accounts with `PAUSER_ROLE` when contract is not already paused.      It does not pause minting."
      },
      "paused()": {
        "details": "Returns true if the contract is paused, and false otherwise."
      },
      "removeFromBlacklist(address)": {
        "details": "Only callable by accounts with `BLACKLISTER_ROLE`. Address must currently be blacklisted.",
        "params": {
          "_address": "Address to remove from the blacklist"
        }
      },
      "renounceRole(bytes32,address)": {
        "details": "Revokes `role` from the calling account. Roles are often managed via {grantRole} and {revokeRole}: this function's purpose is to provide a mechanism for accounts to lose their privileges if they are compromised (such as when a trusted device is misplaced). If the calling account had been revoked `role`, emits a {RoleRevoked} event. Requirements: - the caller must be `callerConfirmation`. May emit a {RoleRevoked} event."
      },
      "revokeRole(bytes32,address)": {
        "details": "Revokes `role` from `account`. If `account` had been granted `role`, emits a {RoleRevoked} event. Requirements: - the caller must have ``role``'s admin role. May emit a {RoleRevoked} event."
      },
      "supportsInterface(bytes4)": {
        "details": "Returns true if this contract implements the interface defined by `interfaceId`. See the corresponding https://eips.ethereum.org/EIPS/eip-165#how-interfaces-are-identified[ERC section] to learn more about how these ids are created. This function call must use less than 30 000 gas."
      },
      "symbol()": {
        "details": "Returns the symbol of the token, usually a shorter version of the name."
      },
      "totalSupply()": {
        "details": "Returns the value of tokens in existence."
      },
      "transfer(address,uint256)": {
        "details": "Overrides ERC20 transfer to add blacklist and pause protections."
      },
      "transferFrom(address,address,uint256)": {
        "details": "Overrides ERC20 transfer to add blacklist and pause protections."
      },
      "unpause()": {
        "details": "Only callable by accounts with `PAUSER_ROLE` when contract is paused."
      }
    },
    "stateVariables": {
      "__gap": {
        "details": "Not using ERC-7201 as this contract is not meant to be inherited."
      },
      "isBlacklisted": {
        "params": {
          "_address": "Address to check blacklist status for"
        },
        "return": "True if the address is blacklisted, false otherwise",
        "returns": {
          "_0": "True if the address is blacklisted, false otherwise"
        }
      }
    },
    "title": "WXRPToken",
    "version": 1
  },
  "userdoc": {
    "errors": {
      "Blacklisted(address)": [
        {
          "notice": "Thrown when attempting to interact with a blacklisted address."
        }
      ],
      "NotBlacklisted(address)": [
        {
          "notice": "Thrown when attempting to remove an address from blacklist that isn't blacklisted."
        }
      ],
      "ZeroAddress()": [
        {
          "notice": "Thrown when attempting to interact with a zero address."
        }
      ]
    },
    "events": {
      "AddedToBlacklist(address)": {
        "notice": "Emitted when an address is added to the blacklist."
      },
      "Burned(address,address,uint256)": {
        "notice": "Emitted when tokens are burned from an address."
      },
      "Minted(address,address,uint256)": {
        "notice": "Emitted when tokens are minted to an address."
      },
      "RemovedFromBlacklist(address)": {
        "notice": "Emitted when an address is removed from the blacklist."
      }
    },
    "kind": "user",
    "methods": {
      "addToBlacklist(address)": {
        "notice": "Adds an address to the blacklist."
      },
      "burn(address,uint256)": {
        "notice": "Burns tokens from address without approval."
      },
      "isBlacklisted(address)": {
        "notice": "Returns whether an address is blacklisted."
      },
      "mint(address,uint256)": {
        "notice": "Mints tokens to address."
      },
      "pause()": {
        "notice": "Pauses all token transfers and burning."
      },
      "removeFromBlacklist(address)": {
        "notice": "Removes an address from the blacklist, restoring token operation capabilities."
      },
      "unpause()": {
        "notice": "Unpauses the contract, resuming normal token operations."
      }
    },
    "notice": "Wrapped XRP upgradeable ERC20 token.",
    "version": 1
  },
  "storageLayout": {
    "storage": [
      {
        "astId": 6539,
        "contract": "contracts/WXRPToken.sol:WXRPToken",
        "label": "isBlacklisted",
        "offset": 0,
        "slot": "0",
        "type": "t_mapping(t_address,t_bool)"
      },
      {
        "astId": 6544,
        "contract": "contracts/WXRPToken.sol:WXRPToken",
        "label": "__gap",
        "offset": 0,
        "slot": "1",
        "type": "t_array(t_uint256)49_storage"
      }
    ],
    "types": {
      "t_address": {
        "encoding": "inplace",
        "label": "address",
        "numberOfBytes": "20"
      },
      "t_array(t_uint256)49_storage": {
        "base": "t_uint256",
        "encoding": "inplace",
        "label": "uint256[49]",
        "numberOfBytes": "1568"
      },
      "t_bool": {
        "encoding": "inplace",
        "label": "bool",
        "numberOfBytes": "1"
      },
      "t_mapping(t_address,t_bool)": {
        "encoding": "mapping",
        "key": "t_address",
        "label": "mapping(address => bool)",
        "numberOfBytes": "32",
        "value": "t_bool"
      },
      "t_uint256": {
        "encoding": "inplace",
        "label": "uint256",
        "numberOfBytes": "32"
      }
    }
  }
}